:020000040800F2
:1000000000500020ED1B0008690D00086B0D000872
:100010006D0D00086F0D0008710D00080000000054
:10002000000000000000000000000000730D000848
:10003000750D000800000000770D0008790D00081C
:10004000351C0008351C0008351C0008351C00084C
:10005000351C0008351C0008351C0008351C00083C
:10006000351C0008351C0008351C0008351C00082C
:10007000351C0008351C0008351C0008351C00081C
:10008000351C0008351C0008351C0008351C00080C
:10009000351C0008351C0008351C0008351C0008FC
:1000A000351C0008351C0008351C0008351C0008EC
:1000B000351C0008351C0008351C0008351C0008DC
:1000C000351C0008351C0008351C0008351C0008CC
:1000D000351C0008351C0008351C0008351C0008BC
:1000E000351C0008351C0008351C00080000000005
:1000F0000000000000000000000000000000000000
:0C01000000000000000000005FF808F1A3
:10010C0010B5054C237833B9044B13B10448AFF345
:10011C0000800123237010BD0C00002000000000A3
:10012C00801C000808B5034B1BB103490348AFF30F
:10013C00008008BD0000000010000020801C00089A
:10014C00034613F8012B002AFBD1181A013870470B
:10015C002DE9F04389B00024049405940694079487
:10016C003F4B9A6942F010029A619A6902F01002B0
:10017C000092009A9A6942F020029A619A6902F000
:10018C0020020192019A9A6942F004029A619A69DA
:10019C0002F004020292029A9A6942F008029A61F1
:1001AC009B6903F008030393039BDFF8C49022467A
:1001BC004FF40051484601F0DEFADFF8B8802246D1
:1001CC00E021404601F0D7FA264F2246012138465D
:1001DC0001F0D1FA4FF400530493012605960694CE
:1001EC000223079304A9484601F0AEF94FF44043AB
:1001FC0004930325059504A9484601F0A5F9049537
:10020C00059504A9184801F09FF949F61373049356
:10021C00059504A9404601F097F9E023049305964F
:10022C000694079504A9404601F08EF904960596AC
:10023C000694079504A9384601F086F94FF6FE732B
:10024C000493059504A9384601F07EF9074A5368D2
:10025C0043F0E06343F40043536009B0BDE8F0831E
:10026C0000100240000C014000140140000001404D
:10027C00001001400008014008B50848084B036015
:10028C004FF4E133436000238360C36003610C22AD
:10029C0042618361C36101F091FB08BD58000020ED
:1002AC0000440040F0B583B006460F46002501958A
:1002BC0000951EE0019B3B605368013353600122A3
:1002CC004FF400512C4801F056FA00F0B3FB01201A
:1002DC0000F0F6FD00F0A4FB022000F0F1FD00F0B0
:1002EC0095FB012000F0ECFD202C41D0B5F57A7F78
:1002FC003ED200F0AFFB052000F0E2FD684600F0B6
:10030C007CFB0446202802D100F06FFB0446202C15
:10031C0003D1002000F015FB0446202C02D100F084
:10032C0041FB0446202C0BD100F07AFB134B1888B0
:10033C0000F0C6FD01A926F0030000F039FB0446CD
:10034C0000F064FB0E4A136801331360202CB1D00B
:10035C000B4A9368013393600135084A13880133C3
:10036C009BB21380312BB0D9134614221A80ACE700
:10037C00204603B0F0BD00BF00100140000000207B
:10038C002800002038B5104800F0ACFB0F4800F0F6
:10039C00A9FB0F4D286800F0D8FB0E4C204600F04E
:1003AC00A1FB0D4800F09EFB686800F0CEFB2046D8
:1003BC0000F098FB094800F095FBA86800F0C5FB1D
:1003CC00204600F08FFB38BD981C0008A81C0008C4
:1003DC0028000020A41C0008B81C0008C41C00083D
:1003EC0070B590B000240794089409940C9401946F
:1003FC0002940394049405940225069501260A960A
:10040C0010230B930D950E944FF4E0130F9306A845
:10041C0000F080FD0F23019302950394049405943E
:10042C00314601A800F0B4FF10B070BD70B582B0B9
:10043C0000F022FDFFF7D4FFFFF78AFEFFF71CFF49
:10044C0000F002FB2F4B00251D6001225A609D60BD
:10045C004FF48031D9601D614FF0FF3301934FF49D
:10046C000051294801F087F92E461DE0254B1B68E9
:10047C002BB92449019800F02BFB043535E02149B8
:10048C00019800F073FB214800F02CFBF5E72048A5
:10049C0000F028FB204600F058FB26E0194B002208
:1004AC001A611D6845BB2E46164C204600F024FCF4
:1004BC0000224FF40051144801F05DF92369002B20
:1004CC00F2D02EB9134B00221A605A609A600126A2
:1004DC000C4B986801A92844FFF7E4FE0446202839
:1004EC00C4D0084B1B68002BD1D1064BDB68AB4248
:1004FC00D4D9202CD2D1D7E7074800F0F3FA002644
:10050C003546D1E73400002000100140D01C000813
:10051C00D41C000828000020A41C000830B4054698
:10052C0000231A46184605E002F001046040520808
:10053C000133DBB28B4205D213F0070FF4D115F85F
:10054C00012BF1E730BC704710B51C46012912D0C5
:10055C00012815D0022A1DD0032A20D0012A14D03C
:10056C0007212046FFF7DAFF237843EA401363F0B4
:10057C007E03237010BD1B7843F002032370E7E762
:10058C00237843F004032370E4E7237843F0080353
:10059C002370E5E7237843F010032370E0E723781A
:1005AC0043F018032370DBE72DE9F04180460F463A
:1005BC00002425461BE000228021164801F0DBF8C0
:1005CC0020200138FDD1144E01221146304601F095
:1005DC00D2F820200138FDD100220121304601F053
:1005EC00CAF86D0820200138FDD10134E4B2BC42B8
:1005FC000DD214F0070F01D118F8015B15F0010FA3
:10060C00D9D001228021034801F0B5F8D8E7BDE824
:10061C00F08100BF00080140000C014010B5094CEE
:10062C0001221146204601F0A6F820200138FDD108
:10063C0000220121204601F09EF820200138FDD136
:10064C0010BD00BF000C014038B520200138FDD191
:10065C00012211461F4801F08EF8012280211E480C
:10066C0001F089F820200138FDD1002412E0194D49
:10067C0001221146284601F07EF820200138FDD1D8
:10068C0000220121284601F076F820200138FDD106
:10069C000134E4B23B2CEAD9002280210E4801F04F
:1006AC006AF8002412E00B4D01221146284601F095
:1006BC0062F820200138FDD100220121284601F0EA
:1006CC005AF820200138FDD10134E4B2022CEAD9C9
:1006DC0038BD00BF000C01400008014010B5114CA2
:1006EC0001228021204601F046F820200138FDD15E
:1006FC002268802393FAA3F1B1FA81F189000F20CB
:10070C0000FA01F122EA010293FAA3F3B3FA83F39C
:10071C009B00082101FA03F31343236020200138C6
:10072C00FDD110BD0008014010B520200138FDD1CD
:10073C000F4C00228021204601F01DF822688023F6
:10074C0093FAA3F1B1FA81F189000F2000FA01F1BB
:10075C0022EA010293FAA3F3B3FA83F39B0001217B
:10076C0001FA03F31343236020200138FDD110BD9F
:10077C00000801402DE9F04107460E4620200138C3
:10078C00FDD1FFF7ABFF20200138FDD100252C4611
:10079C001FE000231D43F31DE208C2EBD303013B12
:1007AC00FD54DFF8508001221146404600F0E3FF73
:1007BC0020200138FDD100220121404600F0DBFF52
:1007CC0020200138FDD104F00703072B0CD0013495
:1007DC00E4B2B4420AD26D088021054800F0C4FF8F
:1007EC000028D6D08023D5E70025F0E7BDE8F081BE
:1007FC0000080140000C014030B585B015460024BE
:10080C008DF80F408DF80C4001948DF808400DF1D7
:10081C000F030A4601460120FFF796FE08210DF151
:10082C000F00FFF7C1FEFFF759FFFFF7F7FE03219B
:10083C0003A8FFF79FFF212101A8FFF79BFFFFF7FC
:10084C0073FF03E0FFF7EAFE0134E4B2022CF9D99E
:10085C009DF808309DF8072043EA02239DF80620F6
:10086C0043EA02439DF8052043EA02632B609DF89E
:10087C000C0005B030BD08B5024600210120FFF781
:10088C00BBFF002008BD30B585B0154600248DF89F
:10089C000F408DF80C4001948DF808400DF10F03BA
:1008AC000A4601462046FFF74FFE08210DF10F00C6
:1008BC00FFF77AFE20200138FDD1FFF70FFF202033
:1008CC000138FDD1FFF7AAFE032103A8FFF752FF61
:1008DC00FFF704FFFFF7A2FEFFF726FF8DF8045089
:1008EC002B0A8DF805302B0C8DF806302D0E8DF85B
:1008FC000750202101A8FFF711FE8DF808002121D7
:10090C0001A8FFF751FEFFF70FFF03E0FFF786FE8C
:10091C000134E4B2132CF9D99DF80C0005B030BDAC
:10092C0008B5024600210846FFF766FF08BD08B56A
:10093C0001F00F0141EA006202210020FFF7A3FF42
:10094C0008BD70B582B0054600210846FFF7EFFFE1
:10095C000026019601A8FFF78EFF044601AA032189
:10096C003046FFF749FF0443E4B2019A22F0070234
:10097C0042F00202019231460120FFF784FF04434A
:10098C00E4B201A8FFF777FF0443E4B201AA032104
:10099C003046FFF731FF0443E0B20DB1019B2B60F1
:1009AC0002B070BD08B500210846FFF7C0FF08BDB6
:1009BC0070B582B002460D4600260196012108460C
:1009CC00FFF761FF044601AA03210120FFF714FF82
:1009DC000443E4B201AA03213046FFF70DFF204384
:1009EC00019B2B60C0B202B070BD08B54FF0A042A5
:1009FC0001210020FFF747FF08BD10B50446FFF7A3
:100A0C0023FE2046FFF78CFF10BD000008B5002226
:100A1C004021024800F0AFFE08BD00BF00080140B5
:100A2C0008B501224021024800F0A5FE08BD00BF18
:100A3C000008014008B500222021024800F09BFE6E
:100A4C0008BD00BF0008014008B5FFF7F3FFFFF732
:100A5C00DDFF08BD08B501222021024800F08BFE05
:100A6C0008BD00BF0008014030B583B00546002426
:100A7C000CE08DF807504FF0FF3301220DF1070108
:100A8C00044800F0CAFF2D0A0134E4B2032CF0D95B
:100A9C0003B030BD5800002030B583B005460024AB
:100AAC0010E0C4F10303DB0025FA03F38DF80730E3
:100ABC004FF0FF3301220DF10701044800F0ADFFA8
:100ACC000134E4B2032CECD903B030BD5800002043
:100ADC0008B54B6813B1FFF7C7FF08BDFFF7DCFF84
:100AEC00FBE7000010B50446FFF72AFB4FF0FF337D
:100AFC0082B22146014800F090FF10BD5800002042
:100B0C0000B583B00209094B9A5C8DF8042000F003
:100B1C000F001B5C8DF8053000238DF8063001A802
:100B2C00FFF7E0FF03B05DF804FB00BFD01D000829
:100B3C0038B50546002405E0E8B2FFF7E1FF2D0AC1
:100B4C000134E4B2032CF7D938BD38B5054600247E
:100B5C0009E0C4F10300C00025FA00F0C0B2FFF7B1
:100B6C00CFFF0134E4B2032CF3D938BD08B54B6880
:100B7C0013B1FFF7DDFF08BDFFF7E7FFFBE7000050
:100B8C0070B50678732E00F2A080DFE806F0829E26
:100B9C009E9E9E9E9E9E9E9E829E9E829E9E9E9EA1
:100BAC009E9E9E9E9E9E9E9E9E9E9E9E9E9E9E9E59
:100BBC009E9E9E9E9E9E9E9E9E9E9E9E9E9E9E9E49
:100BCC009E9E9E9E9E9E9E9E9E9E9E9E9E9E9E5780
:100BDC007D9E9E899E9E8F9E9E9E579E9E9E959EBE
:100BEC009E989E9E9E9E9E9E9E9E9E9E9E9E9E5766
:100BFC007D9E9E839E9E8F9E9E9E579E9E9E959EA4
:100C0C009E98A5F14102D2B2052A1AD8A5F1370255
:100C1C00D2B242EA04140133DBB20A2B11D8C55C00
:100C2C00A5F13002D2B2092AF3D9A5F16102D2B2F0
:100C3C00052AE6D8A5F15702D2B2EAE7002401232F
:100C4C00EBE7612E01D0412E10D114F0030F01D02F
:100C5C00013CFAE78C601F48FFF744FF2046FFF782
:100C6C0074FF1D48FFF73EFF13E0013414F0030F2F
:100C7C00FBD1CC601948FFF735FF2046FFF765FF25
:100C8C001548FFF72FFF04E000230B601448FFF713
:100C9C0029FF70BD01234B601248FFF723FFF8E7D3
:100CAC0000234B601048FFF71DFFF2E701230B6098
:100CBC000E48FFF717FFECE7FFF764FBE9E70123AA
:100CCC000B610B48FFF70EFFE3E70A48FFF70AFF3B
:100CDC00DFE700BFEC1C0008A41C0008041D000882
:100CEC00201D0008401D0008601D00087C1D000828
:100CFC00981D0008B41D000830B583B004460023CD
:100D0C008DF8073001220DF10701114800F0F5FEB6
:100D1C00E0B99DF807300A2B0DD00D2B0BD0092B09
:100D2C0014D00C4A12780A2A10D80B498B54013271
:100D3C00084B1A700AE0084D21462846FFF720FFA1
:100D4C000023044A13702B606B60AB6003B030BDA2
:100D5C005800002054000020480000207047FEE797
:100D6C00FEE7FEE7FEE770477047704708B500F0F6
:100D7C0095F808BD82B00E4B9A6942F001029A6157
:100D8C009A6902F001020092009ADA6942F08052EC
:100D9C00DA61DB6903F080530193019B054A5368C8
:100DAC0023F0E06343F00073536002B0704700BF60
:100DBC00001002400000014010B586B000230293E1
:100DCC000393049305930268164B9A4201D006B024
:100DDC0010BD03F5E633DA6942F40032DA61DA6900
:100DEC0002F400320092009A9A6942F004029A616D
:100DFC009B6903F004030193019B042302930223D8
:100E0C00039303230593084C02A9204600F09CFB96
:100E1C000823029300230393049302A9204600F0B5
:100E2C0093FBD4E7004400400008014010B5044691
:100E3C000E4B18784FF47A73B3FBF0F30C4A10682E
:100E4C00B0FBF3F000F0E4FC68B90F2C01D90120E1
:100E5C000AE0002221464FF0FF3000F0A5FC054BC4
:100E6C001C60002000E0012010BD00BF020000202B
:100E7C00080000200400002008B5074A136843F05E
:100E8C0010031360032000F07DFC0020FFF7CEFF61
:100E9C00FFF770FF002008BD00200240034A1168D4
:100EAC00034B1B780B441360704700BF9800002065
:100EBC0002000020014B1868704700BF980000200A
:100ECC0038B50446FFF7F6FF0546B4F1FF3F02D0F4
:100EDC00044B1B781C44FFF7EDFF401BA042FAD3D8
:100EEC0038BD00BF0200002082B0084B1B68084AC6
:100EFC00A2FB03235B0A00FB03F3019300BF019BDE
:100F0C005A1E0192002BF9D102B070470800002044
:100F1C00D34D6210002800F0F18170B582B0044608
:100F2C00036813F0010F2CD0AA4B5B6803F00C0381
:100F3C00042B1DD0A74B5B6803F00C03082B12D0BD
:100F4C006368B3F5803F41D0002B55D103F180434A
:100F5C0003F504331A6822F480321A601A6822F4FA
:100F6C0080221A6037E09B4B5B6813F4803FE7D01C
:100F7C00984B1B6813F4003F03D06368002B00F000
:100F8C00BF81236813F0020F75D0924B5B6813F08E
:100F9C000C0F5FD08F4B5B6803F00C03082B54D005
:100FAC002369002B00F089808B4B01221A60FFF71C
:100FBC0081FF0546874B1B6813F0020F74D1FFF7B6
:100FCC0079FF401B0228F5D903209EE1814A136862
:100FDC0043F480331360636843B3FFF76BFF05463C
:100FEC007C4B1B6813F4003FCBD1FFF763FF401B16
:100FFC006428F5D9032088E1B3F5A02F09D0754BEF
:10100C001A6822F480321A601A6822F480221A605C
:10101C00E1E703F18043A3F53C331A6842F48022E4
:10102C001A601A6842F480321A60D4E7FFF742FF64
:10103C000546684B1B6813F4003FA2D0FFF73AFF3C
:10104C00401B6428F5D903205FE1624B5B6813F405
:10105C00803FA5D15F4B1B6813F0020F03D02369AF
:10106C00012B40F04F815B4A136823F0F803616950
:10107C0043EAC1031360236813F0080F32D0A3694D
:10108C00002B45D0554B01221A60FFF713FF054684
:10109C00504B5B6A13F0020F21D1FFF70BFF401B83
:1010AC000228F5D9032030E14A4A136823F0F803EB
:1010BC00616943EAC1031360DDE7474B00221A6004
:1010CC00FFF7F8FE0546434B1B6813F0020FD2D016
:1010DC00FFF7F0FE401B0228F5D9032015E1012093
:1010EC00FFF702FF236813F0040F00F09780394BD1
:1010FC00DB6913F0805F1DD1364BDA6942F0805208
:10110C00DA61DB6903F080530193019B012512E046
:10111C00324B00221A60FFF7CDFE05462D4B5B6A61
:10112C0013F0020FDED0FFF7C5FE401B0228F5D9E5
:10113C000320EAE000252A4B1B6813F4807F11D0B2
:10114C00E368012B22D0002B38D103F1804303F547
:10115C0004331A6A22F001021A621A6A22F004029B
:10116C001A6218E01E4A136843F480731360FFF789
:10117C00A1FE06461A4B1B6813F4807FE0D1FFF7E3
:10118C0099FE801B6428F5D90320BEE0114A136A2E
:10119C0043F001031362E36873B3FFF78BFE06465B
:1011AC000C4B1B6A13F0020F37D1FFF783FE801B29
:1011BC0041F288339842F3D90320A6E0052B11D0D5
:1011CC00044B1A6A22F001021A621A6A22F0040213
:1011DC001A62E0E7001002400000424280044242E2
:1011EC00007000404D4B1A6A42F004021A621A6AEF
:1011FC0042F001021A62CEE7FFF75CFE0646474B4F
:10120C001B6A13F0020F08D0FFF754FE801B41F24B
:10121C0088339842F3D9032077E0E5B9E369002BD2
:10122C0072D03E4A526802F00C02082A56D0022BA9
:10123C0017D03B4B00221A60FFF73CFE0446374B9D
:10124C001B6813F0007F47D0FFF734FE001B022809
:10125C00F5D9032059E0314AD36923F08053D36187
:10126C00DCE72F4B00221A60FFF724FE05462B4BC0
:10127C001B6813F0007F06D0FFF71CFE401B0228F2
:10128C00F5D9032041E0236AB3F5803F1AD02349F6
:10129C004B6823F47413226A606A024313434B6055
:1012AC001F4B01221A60FFF705FE04461B4B1B68FF
:1012BC0013F0007F0ED1FFF7FDFD001B0228F5D9BE
:1012CC00032022E0154A536823F40033A1680B4332
:1012DC005360DCE7002018E0002016E0012B16D04C
:1012EC000E4B5B6803F48031226A914211D103F4F6
:1012FC007013626A93420ED1002006E00120704701
:10130C00012002E0012000E0002002B070BD0120AD
:10131C00FBE70120F9E70120F7E700BF00100240CE
:10132C006000424286B0164B0FCB0DF1180C0CE945
:10133C000F0040F20123ADF80430124B5B6803F050
:10134C000C02082A02D0104806B07047C3F383423F
:10135C00624412F8102C13F4803F0CD0094B5B68DC
:10136C00C3F34043634413F8143C074800FB02F0FA
:10137C00B0FBF3F0E8E7054800FB02F0E4E700BF40
:10138C00E41D00080010024000127A0000093D0024
:10139C00002800F0A08070B50D460446524B1B6827
:1013AC0003F007038B420BD24F4A136823F0070359
:1013BC000B431360136803F007038B4240F08D80DE
:1013CC00236813F0020F17D013F0040F04D0474A10
:1013DC00536843F4E0635360236813F0080F04D0A0
:1013EC00424A536843F460535360404A536823F0B5
:1013FC00F003A1680B435360236813F0010F31D045
:10140C006368012B20D0022B25D0384A126812F0C9
:10141C00020F64D035494A6822F0030213434B6033
:10142C00FFF748FD0646314B5B6803F00C0362681E
:10143C00B3EB820F16D0FFF73DFD801B41F28833D2
:10144C009842F0D9032045E0284A126812F4003F74
:10145C00E0D101203EE0254A126812F0007FD9D17C
:10146C00012037E0204B1B6803F00703AB420AD97D
:10147C001D4A136823F007032B431360136803F012
:10148C000703AB422DD1236813F0040F06D0174A83
:10149C00536823F4E063E1680B435360236813F053
:1014AC00080F07D0114A536823F46053216943EAAB
:1014BC00C1035360FFF736FF0C4B5B68C3F3031398
:1014CC000B4AD35CD8400B4B18600B4B1868FFF7DA
:1014DC00ADFC002070BD012070470120FAE701200F
:1014EC00F8E70120F6E700BF0020024000100240A0
:1014FC00F81D00080800002004000020014B1868AB
:10150C00704700BF0800002008B5FFF7F7FF044B39
:10151C005B68C3F30223034AD35CD84008BD00BF09
:10152C0000100240081E000808B5FFF7E7FF044B47
:10153C005B68C3F3C223034AD35CD84008BD00BF29
:10154C0000100240081E0008F0B482B000252C46A2
:10155C00A3E07F4FBB4210D007D97E4FBB420CD0CB
:10156C0007F58037BB4208D013E0A7F58017BB42C4
:10157C0003D007F57027BB4207D18B68002B58D0DE
:10158C00012B51D04261082503E0A7F58017BB421F
:10159C00F3D0FF2E4FD88446FF2E4FD8A200DCF894
:1015AC0000300F27974023EA070305FA02F2134392
:1015BC00CCF800304B6813F0805F6DD0664B9A69A5
:1015CC0042F001029A619B6903F001030193019BB4
:1015DC00A208971C614B53F8273004F00307BF0097
:1015EC004FF00F0C0CFA07FC23EA0C0C5C4B9842E6
:1015FC002AD003F58063984200F08A8003F580635B
:10160C00984200F0878003F5806398421AD0042337
:10161C001BE0CD68BDE7CD680435BAE7CD68083569
:10162C00B7E7CD680C35B4E702610825B1E70025B2
:10163C00AFE70425ADE700F1040CADE7A4F1080217
:10164C009200ACE7032300E00023BB4043EA0C0309
:10165C000232424F47F822304B6813F4803F5BD084
:10166C00404A1368334313604B6813F4003F59D05E
:10167C003C4A5368334353604B6813F4801F57D074
:10168C00384A9368334393604B6813F4001F55D06A
:10169C00344AD3681E43D66001340B6833FA04F223
:1016AC0052D00122A24003EA020632EA0303F3D12C
:1016BC004B68122B3FF64DAF122B3FF66AAF01A7CA
:1016CC0057F823F0871500081F1600082916000884
:1016DC003B1600089F1500089F1500089F15000871
:1016EC009F1500089F1500089F1500089F150008FE
:1016FC009F1500089F1500089F1500089F150008EE
:10170C009F1500089F150008231600082F160008C7
:10171C0001239AE7022398E7124A136823EA060387
:10172C001360A1E70F4A536823EA06035360A3E74B
:10173C000C4A936823EA06039360A5E7094AD36829
:10174C0023EA0606D660A7E702B0F0BC704700BFDC
:10175C000000221000003110001002400000014077
:10176C0000080140000401408368194201D00120A7
:10177C007047002070470AB101617047090401618C
:10178C0070470000074AD36823F4E0631B041B0C6A
:10179C00000200F4E060034343F0BF6343F4003302
:1017AC00D360704700ED00E030B4174BDB68C3F337
:1017BC000223C3F10704042C28BF04241D1D062D8D
:1017CC0018D9033B4FF0FF3505FA04F421EA040164
:1017DC00994005FA03F322EA0303194300280BDBB3
:1017EC000901C9B200F1604000F5614080F80013B6
:1017FC0030BC70470023E5E700F00F000901C9B2C7
:10180C00024B1954F4E700BF00ED00E014ED00E0CA
:10181C000138B0F1807F0AD2064B5860064AF0219D
:10182C0082F823100020986007221A60704701206C
:10183C00704700BF10E000E000ED00E00F4B1A68AD
:10184C0042F001021A6059680D4A0A405A601A683F
:10185C0022F0847222F480321A601A6822F48022F8
:10186C001A605A6822F4FE025A604FF41F029A6002
:10187C00044B4FF000629A60704700BF00100240AA
:10188C000000FFF800ED00E038B50446026813696B
:10189C0023F44053C1680B431361836802691343FB
:1018AC0042691A430168CB6823F4B05323F00C034C
:1018BC001343CB600268536923F4407381690B4373
:1018CC0053610268214B9A421FD0FFF71DFE00EBBB
:1018DC00800000EB800063689B00B0FBF3F01C4DB4
:1018EC00A5FB00325109642303FB11031B013233A6
:1018FC00A5FB03235B0903F0F00202EB011203F0DA
:10190C000F03216813448B6038BDFFF70DFE00EB0D
:10191C00800000EB800063689B00B0FBF3F00C4D83
:10192C00A5FB00325109642303FB11031B01323365
:10193C00A5FB03235B0903F0F00202EB011203F099
:10194C000F03216813448B60DEE700BF00380140B1
:10195C001F85EB512DE9F84305460F46164699466F
:10196C00DDF820802C68246837EA04030CBF0124BE
:10197C000024B4421FD1B8F1FF3FF3D0B8F1000FEF
:10198C0005D0FFF797FAA0EB09004045EAD92A6881
:10199C00D36823F4D073D3602A68536923F001030E
:1019AC005361202385F8393085F83A30002385F8C7
:1019BC003830032000E00020BDE8F88358B310B5A0
:1019CC00044690F839300BB3242384F8393022685C
:1019DC00D36823F40053D3602046FFF755FF2268E9
:1019EC00136923F4904313612268536923F02A038B
:1019FC0053612268D36843F40053D3600020E06342
:101A0C00202384F8393084F83A3010BD80F838300F
:101A1C00FFF7D2F9D8E7012070472DE9F04182B0E9
:101A2C001E4690F83930DBB2202B58D104460D46B7
:101A3C009046002957D0002A57D090F83830012B07
:101A4C0055D0012380F838300023C363212380F85C
:101A5C003930FFF72FFA0746A4F82480A4F8268023
:101A6C0017E000963B46002280212046FFF772FFCC
:101A7C0000283ED12B882268C3F3080353602369E6
:101A8C000BB9023505E0013503E015F8012B23688D
:101A9C005A60E38C9BB29BB1E28C92B2013A92B247
:101AAC00E284A368B3F5805FDBD000963B4600224E
:101ABC0080212046FFF74EFF0028E6D003200FE0E0
:101ACC0000963B46002240212046FFF743FF90B989
:101ADC00202384F83930002384F8383000E00220C9
:101AEC0002B0BDE8F0810120FAE70120F8E70220FE
:101AFC00F6E70320F4E70320F2E72DE9F04182B08A
:101B0C001E4690F83A30DBB2202B5BD104460D46D2
:101B1C00904600295AD0002A5AD090F83830012B20
:101B2C0058D0012380F838300023C363222380F877
:101B3C003A30FFF7BFF90746A4F82C80A4F82E80A2
:101B4C001DE000963B46002220212046FFF702FFB5
:101B5C00002841D1236933B923685B68C3F30803B8
:101B6C0025F8023B0BE023685B68DBB225F8013BF0
:101B7C0005E023685B6803F07F0305F8013BE38D08
:101B8C009BB2C3B1E28D92B2013A92B2E285A368E4
:101B9C00B3F5805FD5D000963B460022202120462D
:101BAC00FFF7D8FED0B92369002BE2D123685B681C
:101BBC0005F8013BE3E7202384F83A30002084F851
:101BCC00380000E0022002B0BDE8F0810120FAE705
:101BDC000120F8E70220F6E70320F4E70320F2E700
:101BEC00002103E00B4B5B58435004310A480B4B6C
:101BFC0042189A42F6D30A4A02E0002342F8043B08
:101C0C00084B9A42F9D3FFF719FE00F00FF8FEF7D4
:101C1C000DFC7047181E0008000000200C0000206E
:101C2C000C0000209C000020FEE7000070B5002690
:101C3C000C4D0D4C641BA410A64209D100F01AF8EF
:101C4C0000260A4D0A4C641BA410A64205D170BD97
:101C5C0055F8043B98470136EEE755F8043B984796
:101C6C000136F2E7101E0008101E0008101E0008B6
:101C7C00141E0008F8B500BFF8BC08BC9E4670479F
:0C1C8C00F8B500BFF8BC08BC9E467047CD
:101C9800537461746973746963733A200D0A0000A0
:101CA800417474656D7074733A20307800000000D8
:101CB800537563636573733A203078004661696CC5
:101CC8007572653A20307800200000000D0A214521
:101CD800787472616374696F6E4661696C75726558
:101CE800000000005374617274206164647265734B
:101CF800732073657420746F2030780052656164B6
:101D08006F7574206C656E677468207365742074D1
:101D18006F2030780000000042696E617279206F90
:101D28007574707574206D6F64652073656C656378
:101D38007465640D0A0000004C6974746C65204574
:101D48006E6469616E206D6F646520656E61626C9A
:101D580065640D0A0000000042696720456E6469E9
:101D6800616E206D6F646520656E61626C65640DDF
:101D78000A000000486578206F7574707574206DCE
:101D88006F64652073656C65637465640D0A000093
:101D9800466C61736820726561646F757420737432
:101DA8006172746564210D0A000000004552524FAB
:101DB800523A20756E6B6E6F776E20636F6D6D6132
:101DC8006E640D0A00000000303132333435363786
:101DD80038394142434445460000000002030405E7
:101DE800060708090A0B0C0D0E0F10100000000062
:101DF80000000000000000000102030406070809B3
:081E08000000000001020304C8
:041E10003101000894
:041E14000D010008B4
:0C1E180014000100100000000024F40081
:0400000508001BEDE7
:00000001FF
